:020000040000FA
:100000000A128A11F82F00308A000408840A820735
:1000100000343F3406345B344F3466346D347D3401
:0600200007347F346F3449
:100F000083120313890188018701860185018316F5
:100F1000031306148801870183120313061C912F03
:100F2000922FD02F3430F100F130F000F00B962FDB
:100F3000F10B962F9B2F83120313061CA02FA12FBA
:100F4000D02F0130F5070318F60A0030F6077608AF
:100F5000803AFF0080307F02031DB02F0A307502F7
:100F6000031CB32FB42FBC2F0130F7070318F80A66
:100F70000030F807F501F6017708013E84000A12F7
:100F80008A1103200A128A1183120313880075083C
:100F9000013E84000A128A1103200A128A11870076
:100FA0000130F3000030F4000B30F2002630F10085
:100FB0005D30F000F00BDA2FF10BDA2FF20BDA2FA5
:100FC000E12F0130F3070318F40A0030F407740826
:100FD000803AFF0080307F02031DF02F0B30730238
:100FE000031CF32FF42FD42F8C2F0A128A11002800
:100FF000F501F601F701F80183010A128A11802F29
:02400E003A3F37
:00000001FF
